:020000020000FC
:0200000045C0F9
:08000400A0D01895ADD01895AD
:040078002FD01895D8
:10008C00B0E1AFEFBEBFADBF0FEF07BB00E008BBE9
:10009C0000E001BB0FEF02BB02E000939B0008E9FC
:1000AC0000939A000EE000939D0003E000939800EB
:1000BC0002E40093990003E009BF0AE000936A0090
:1000CC0010E620E030E0789418BBFECF0F930FB70A
:1000DC000F9300919C000535E9F0203041F40A3172
:1000EC0009F4239527D00F910FBF0F91089520E0AD
:1000FC00083F39F0000F102F1DD00F910FBF0F913B
:10010C000895222705E500939C0014D00F910FBF92
:10011C000F9108952227339500E908BB3330F1F392
:10012C002FD02ED02DD02CD02BD004D00F910FBF90
:10013C000F91089503E008BF08950F937F930FB7B5
:10014C000F9319D000E208BB74E61AD0F3DF0F91BD
:10015C000FBF7F910F9108950F937F930FB70F935C
:10016C000AD000E408BB74E60BD0E4DF0F910FBF9C
:10017C007F910F91089500E008BB74E601D00895BB
:10018C007F938F939F9374E690EE8DEE8A95F1F7A3
:10019C009A95D9F77A95C1F79F918F917F91089590
:00000001FF
